{
  "contractName": "DB",
  "abi": [
    {
      "inputs": [],
      "stateMutability": "nonpayable",
      "type": "constructor"
    },
    {
      "anonymous": false,
      "inputs": [
        {
          "indexed": true,
          "internalType": "address",
          "name": "previousOwner",
          "type": "address"
        },
        {
          "indexed": true,
          "internalType": "address",
          "name": "newOwner",
          "type": "address"
        }
      ],
      "name": "OwnershipTransferred",
      "type": "event"
    },
    {
      "inputs": [],
      "name": "destroy",
      "outputs": [],
      "stateMutability": "nonpayable",
      "type": "function"
    },
    {
      "inputs": [
        {
          "internalType": "address payable",
          "name": "_recipient",
          "type": "address"
        }
      ],
      "name": "destroyAndSend",
      "outputs": [],
      "stateMutability": "nonpayable",
      "type": "function"
    },
    {
      "inputs": [],
      "name": "isOwner",
      "outputs": [
        {
          "internalType": "bool",
          "name": "",
          "type": "bool"
        }
      ],
      "stateMutability": "view",
      "type": "function"
    },
    {
      "inputs": [],
      "name": "owner",
      "outputs": [
        {
          "internalType": "address payable",
          "name": "",
          "type": "address"
        }
      ],
      "stateMutability": "view",
      "type": "function"
    },
    {
      "inputs": [
        {
          "internalType": "address",
          "name": "",
          "type": "address"
        }
      ],
      "name": "permissionStatusForContract",
      "outputs": [
        {
          "internalType": "bool",
          "name": "",
          "type": "bool"
        }
      ],
      "stateMutability": "view",
      "type": "function"
    },
    {
      "inputs": [
        {
          "internalType": "uint256",
          "name": "",
          "type": "uint256"
        }
      ],
      "name": "permittedContractsAddresses",
      "outputs": [
        {
          "internalType": "address",
          "name": "",
          "type": "address"
        }
      ],
      "stateMutability": "view",
      "type": "function"
    },
    {
      "inputs": [],
      "name": "renounceOwnership",
      "outputs": [],
      "stateMutability": "nonpayable",
      "type": "function"
    },
    {
      "inputs": [
        {
          "internalType": "address payable",
          "name": "newOwner",
          "type": "address"
        }
      ],
      "name": "transferOwnership",
      "outputs": [],
      "stateMutability": "nonpayable",
      "type": "function"
    },
    {
      "inputs": [
        {
          "internalType": "bytes32",
          "name": "recordFieldName",
          "type": "bytes32"
        }
      ],
      "name": "getAddressValue",
      "outputs": [
        {
          "internalType": "address",
          "name": "",
          "type": "address"
        }
      ],
      "stateMutability": "view",
      "type": "function"
    },
    {
      "inputs": [
        {
          "internalType": "bytes32",
          "name": "recordFieldName",
          "type": "bytes32"
        },
        {
          "internalType": "address",
          "name": "value",
          "type": "address"
        }
      ],
      "name": "setAddressValue",
      "outputs": [],
      "stateMutability": "nonpayable",
      "type": "function"
    },
    {
      "inputs": [
        {
          "internalType": "bytes32",
          "name": "recordFieldName",
          "type": "bytes32"
        }
      ],
      "name": "deleteAddressValue",
      "outputs": [],
      "stateMutability": "nonpayable",
      "type": "function"
    },
    {
      "inputs": [
        {
          "internalType": "bytes32",
          "name": "recordFieldName",
          "type": "bytes32"
        }
      ],
      "name": "getBoolValue",
      "outputs": [
        {
          "internalType": "bool",
          "name": "",
          "type": "bool"
        }
      ],
      "stateMutability": "view",
      "type": "function"
    },
    {
      "inputs": [
        {
          "internalType": "bytes32",
          "name": "recordFieldName",
          "type": "bytes32"
        },
        {
          "internalType": "bool",
          "name": "value",
          "type": "bool"
        }
      ],
      "name": "setBoolValue",
      "outputs": [],
      "stateMutability": "nonpayable",
      "type": "function"
    },
    {
      "inputs": [
        {
          "internalType": "bytes32",
          "name": "recordFieldName",
          "type": "bytes32"
        }
      ],
      "name": "deleteBoolValue",
      "outputs": [],
      "stateMutability": "nonpayable",
      "type": "function"
    },
    {
      "inputs": [
        {
          "internalType": "bytes32",
          "name": "recordFieldName",
          "type": "bytes32"
        }
      ],
      "name": "getBytesValue",
      "outputs": [
        {
          "internalType": "bytes",
          "name": "",
          "type": "bytes"
        }
      ],
      "stateMutability": "view",
      "type": "function"
    },
    {
      "inputs": [
        {
          "internalType": "bytes32",
          "name": "recordFieldName",
          "type": "bytes32"
        },
        {
          "internalType": "bytes",
          "name": "value",
          "type": "bytes"
        }
      ],
      "name": "setBytesValue",
      "outputs": [],
      "stateMutability": "nonpayable",
      "type": "function"
    },
    {
      "inputs": [
        {
          "internalType": "bytes32",
          "name": "recordFieldName",
          "type": "bytes32"
        }
      ],
      "name": "deleteBytesValue",
      "outputs": [],
      "stateMutability": "nonpayable",
      "type": "function"
    },
    {
      "inputs": [
        {
          "internalType": "bytes32",
          "name": "recordFieldName",
          "type": "bytes32"
        }
      ],
      "name": "getBytes32Value",
      "outputs": [
        {
          "internalType": "bytes32",
          "name": "",
          "type": "bytes32"
        }
      ],
      "stateMutability": "view",
      "type": "function"
    },
    {
      "inputs": [
        {
          "internalType": "bytes32",
          "name": "recordFieldName",
          "type": "bytes32"
        },
        {
          "internalType": "bytes32",
          "name": "value",
          "type": "bytes32"
        }
      ],
      "name": "setBytes32Value",
      "outputs": [],
      "stateMutability": "nonpayable",
      "type": "function"
    },
    {
      "inputs": [
        {
          "internalType": "bytes32",
          "name": "recordFieldName",
          "type": "bytes32"
        }
      ],
      "name": "deleteBytes32Value",
      "outputs": [],
      "stateMutability": "nonpayable",
      "type": "function"
    },
    {
      "inputs": [
        {
          "internalType": "bytes32",
          "name": "recordFieldName",
          "type": "bytes32"
        }
      ],
      "name": "getIntValue",
      "outputs": [
        {
          "internalType": "int256",
          "name": "",
          "type": "int256"
        }
      ],
      "stateMutability": "view",
      "type": "function"
    },
    {
      "inputs": [
        {
          "internalType": "bytes32",
          "name": "recordFieldName",
          "type": "bytes32"
        },
        {
          "internalType": "int256",
          "name": "value",
          "type": "int256"
        }
      ],
      "name": "setIntValue",
      "outputs": [],
      "stateMutability": "nonpayable",
      "type": "function"
    },
    {
      "inputs": [
        {
          "internalType": "bytes32",
          "name": "recordFieldName",
          "type": "bytes32"
        }
      ],
      "name": "deleteIntValue",
      "outputs": [],
      "stateMutability": "nonpayable",
      "type": "function"
    },
    {
      "inputs": [
        {
          "internalType": "bytes32",
          "name": "recordFieldName",
          "type": "bytes32"
        }
      ],
      "name": "getUIntValue",
      "outputs": [
        {
          "internalType": "uint256",
          "name": "",
          "type": "uint256"
        }
      ],
      "stateMutability": "view",
      "type": "function"
    },
    {
      "inputs": [
        {
          "internalType": "bytes32",
          "name": "recordFieldName",
          "type": "bytes32"
        },
        {
          "internalType": "uint256",
          "name": "value",
          "type": "uint256"
        }
      ],
      "name": "setUIntValue",
      "outputs": [],
      "stateMutability": "nonpayable",
      "type": "function"
    },
    {
      "inputs": [
        {
          "internalType": "bytes32",
          "name": "recordFieldName",
          "type": "bytes32"
        },
        {
          "internalType": "uint256",
          "name": "value",
          "type": "uint256"
        }
      ],
      "name": "addUIntValue",
      "outputs": [],
      "stateMutability": "nonpayable",
      "type": "function"
    },
    {
      "inputs": [
        {
          "internalType": "bytes32",
          "name": "recordFieldName",
          "type": "bytes32"
        },
        {
          "internalType": "uint256",
          "name": "value",
          "type": "uint256"
        }
      ],
      "name": "subUIntValue",
      "outputs": [],
      "stateMutability": "nonpayable",
      "type": "function"
    },
    {
      "inputs": [
        {
          "internalType": "bytes32",
          "name": "recordFieldName",
          "type": "bytes32"
        }
      ],
      "name": "deleteUIntValue",
      "outputs": [],
      "stateMutability": "nonpayable",
      "type": "function"
    },
    {
      "inputs": [
        {
          "internalType": "bytes32",
          "name": "recordFieldName",
          "type": "bytes32"
        }
      ],
      "name": "getUInt8Value",
      "outputs": [
        {
          "internalType": "uint8",
          "name": "",
          "type": "uint8"
        }
      ],
      "stateMutability": "view",
      "type": "function"
    },
    {
      "inputs": [
        {
          "internalType": "bytes32",
          "name": "recordFieldName",
          "type": "bytes32"
        },
        {
          "internalType": "uint8",
          "name": "value",
          "type": "uint8"
        }
      ],
      "name": "setUInt8Value",
      "outputs": [],
      "stateMutability": "nonpayable",
      "type": "function"
    },
    {
      "inputs": [
        {
          "internalType": "bytes32",
          "name": "recordFieldName",
          "type": "bytes32"
        }
      ],
      "name": "deleteUInt8Value",
      "outputs": [],
      "stateMutability": "nonpayable",
      "type": "function"
    },
    {
      "inputs": [
        {
          "internalType": "bytes32",
          "name": "recordFieldName",
          "type": "bytes32"
        }
      ],
      "name": "getStringValue",
      "outputs": [
        {
          "internalType": "string",
          "name": "",
          "type": "string"
        }
      ],
      "stateMutability": "view",
      "type": "function"
    },
    {
      "inputs": [
        {
          "internalType": "bytes32",
          "name": "recordFieldName",
          "type": "bytes32"
        },
        {
          "internalType": "string",
          "name": "value",
          "type": "string"
        }
      ],
      "name": "setStringValue",
      "outputs": [],
      "stateMutability": "nonpayable",
      "type": "function"
    },
    {
      "inputs": [
        {
          "internalType": "bytes32",
          "name": "recordFieldName",
          "type": "bytes32"
        }
      ],
      "name": "deleteStringValue",
      "outputs": [],
      "stateMutability": "nonpayable",
      "type": "function"
    },
    {
      "inputs": [
        {
          "internalType": "address",
          "name": "contractAddress",
          "type": "address"
        }
      ],
      "name": "addPermittedContract",
      "outputs": [],
      "stateMutability": "nonpayable",
      "type": "function"
    },
    {
      "inputs": [
        {
          "internalType": "address[]",
          "name": "addresses",
          "type": "address[]"
        }
      ],
      "name": "addPermittedContracts",
      "outputs": [],
      "stateMutability": "nonpayable",
      "type": "function"
    },
    {
      "inputs": [
        {
          "internalType": "address",
          "name": "addresses",
          "type": "address"
        }
      ],
      "name": "removePermittedContract",
      "outputs": [],
      "stateMutability": "nonpayable",
      "type": "function"
    },
    {
      "inputs": [
        {
          "internalType": "address[]",
          "name": "addresses",
          "type": "address[]"
        }
      ],
      "name": "removePermittedContracts",
      "outputs": [],
      "stateMutability": "nonpayable",
      "type": "function"
    },
    {
      "inputs": [],
      "name": "permittedContractsCount",
      "outputs": [
        {
          "internalType": "uint256",
          "name": "count",
          "type": "uint256"
        }
      ],
      "stateMutability": "view",
      "type": "function"
    },
    {
      "inputs": [],
      "name": "getPermittedContracts",
      "outputs": [
        {
          "internalType": "address[]",
          "name": "addresses",
          "type": "address[]"
        }
      ],
      "stateMutability": "view",
      "type": "function"
    },
    {
      "inputs": [
        {
          "internalType": "bytes32[]",
          "name": "recordFieldNames",
          "type": "bytes32[]"
        },
        {
          "internalType": "uint8[]",
          "name": "recordFieldTypes",
          "type": "uint8[]"
        }
      ],
      "name": "getObjectData",
      "outputs": [
        {
          "internalType": "uint256[]",
          "name": "items",
          "type": "uint256[]"
        },
        {
          "internalType": "string",
          "name": "stringItem",
          "type": "string"
        }
      ],
      "stateMutability": "view",
      "type": "function"
    },
    {
      "inputs": [
        {
          "internalType": "uint8[]",
          "name": "recordFieldTypes",
          "type": "uint8[]"
        }
      ],
      "name": "getCountOfIntegerTypes",
      "outputs": [
        {
          "internalType": "uint256",
          "name": "count",
          "type": "uint256"
        }
      ],
      "stateMutability": "pure",
      "type": "function"
    },
    {
      "inputs": [
        {
          "internalType": "bytes32",
          "name": "recordFieldName",
          "type": "bytes32"
        },
        {
          "internalType": "uint8",
          "name": "uintType",
          "type": "uint8"
        }
      ],
      "name": "getCorrespondingIntegerValue",
      "outputs": [
        {
          "internalType": "uint256",
          "name": "",
          "type": "uint256"
        }
      ],
      "stateMutability": "view",
      "type": "function"
    },
    {
      "inputs": [
        {
          "internalType": "bool",
          "name": "logicEntry",
          "type": "bool"
        }
      ],
      "name": "boolToUInt",
      "outputs": [
        {
          "internalType": "uint256",
          "name": "",
          "type": "uint256"
        }
      ],
      "stateMutability": "pure",
      "type": "function"
    }
  ],
  "bytecode": "0x608060405234801561001057600080fd5b5060008054600160a060020a0319163317808255604051600160a060020a039190911691907f8be0079c531659141344cd1fd0a4f28419497f9722a3daafe3b4186f6b6457e0908290a3611f0b806100696000396000f3fe608060405234801561001057600080fd5b5060043610610290576000357c0100000000000000000000000000000000000000000000000000000000900480638267a9ee1161016e578063a77aa49e116100e0578063c9a52d2c116100a4578063c9a52d2c14610a21578063dc02511e14610a98578063f2fde38b14610b08578063f5074f4114610b2e578063f586606614610b54578063ffbd400b14610bcb57610290565b8063a77aa49e1461097b578063a98ad1991461099e578063ba69fcaa146109c4578063bdc963d8146109e1578063c8d1c017146109fe57610290565b80638f32d59b116101325780638f32d59b146108c55780638ffa9690146108e15780639007127b146108fe57806393fe42481461091b5780639420e58d14610938578063a209a29c1461095e57610290565b80638267a9ee146106fc57806382914e5d1461071957806383197ef01461089857806384d7c99d146108a05780638da5cb5b146108bd57610290565b80633836fe6e116102075780635a2bf25a116101cb5780635a2bf25a146105b25780636aebbbd9146105de5780636d38156f14610601578063715018a6146106a457806373fb35ee146106ac5780637a0e03ec146106c957610290565b80633836fe6e1461047657806344bfa56e1461049c5780634c77e5ba1461052e578063506d7d001461056757806352d2d83d1461058d57610290565b80630c55d925116102595780630c55d92514610396578063124f2418146103b357806325cf512d146103d057806326df61f6146103f35780633138ee5c146103fb5780633562fd201461045357610290565b8062a35aa214610295578063025ec81a146102b4578063043106c0146102e35780630489fa70146103005780630bd8515814610370575b600080fd5b6102b2600480360360208110156102ab57600080fd5b5035610bea565b005b6102d1600480360360208110156102ca57600080fd5b5035610c41565b60408051918252519081900360200190f35b6102b2600480360360208110156102f957600080fd5b5035610c56565b6102b26004803603602081101561031657600080fd5b81019060208101813564010000000081111561033157600080fd5b82018360208201111561034357600080fd5b8035906020019184602083028401116401000000008311171561036557600080fd5b509092509050610cc0565b6102b26004803603604081101561038657600080fd5b508035906020013560ff16610d2c565b6102b2600480360360208110156103ac57600080fd5b5035610d8d565b6102b2600480360360208110156103c957600080fd5b5035610de6565b6102b2600480360360408110156103e657600080fd5b5080359060200135610e36565b6102d1610e87565b610403610ee6565b60408051602080825283518183015283519192839290830191858101910280838360005b8381101561043f578181015183820152602001610427565b505050509050019250505060405180910390f35b6102b26004803603604081101561046957600080fd5b5080359060200135610fde565b6102b26004803603602081101561048c57600080fd5b5035600160a060020a031661102f565b6104b9600480360360208110156104b257600080fd5b50356110b0565b6040805160208082528351818301528351919283929083019185019080838360005b838110156104f35781810151838201526020016104db565b50505050905090810190601f1680156105205780820380516001836020036101000a031916815260200191505b509250505060405180910390f35b61054b6004803603602081101561054457600080fd5b5035611151565b60408051600160a060020a039092168252519081900360200190f35b6102d16004803603604081101561057d57600080fd5b508035906020013560ff1661116c565b6102b2600480360360408110156105a357600080fd5b5080359060200135151561120a565b6102b2600480360360408110156105c857600080fd5b5080359060200135600160a060020a0316611269565b6102b2600480360360408110156105f457600080fd5b50803590602001356112e3565b6102d16004803603602081101561061757600080fd5b81019060208101813564010000000081111561063257600080fd5b82018360208201111561064457600080fd5b8035906020019184602083028401116401000000008311171561066657600080fd5b919080806020026020016040519081016040528093929190818152602001838360200280828437600092019190915250929550611351945050505050565b6102b2611391565b61054b600480360360208110156106c257600080fd5b50356113f9565b6106e6600480360360208110156106df57600080fd5b5035611423565b6040805160ff9092168252519081900360200190f35b6102b26004803603602081101561071257600080fd5b5035611438565b6107db6004803603604081101561072f57600080fd5b81019060208101813564010000000081111561074a57600080fd5b82018360208201111561075c57600080fd5b8035906020019184602083028401116401000000008311171561077e57600080fd5b91939092909160208101903564010000000081111561079c57600080fd5b8201836020820111156107ae57600080fd5b803590602001918460208302840111640100000000831117156107d057600080fd5b509092509050611488565b604051808060200180602001838103835285818151815260200191508051906020019060200280838360005b8381101561081f578181015183820152602001610807565b50505050905001838103825284818151815260200191508051906020019080838360005b8381101561085b578181015183820152602001610843565b50505050905090810190601f1680156108885780820380516001836020036101000a031916815260200191505b5094505050505060405180910390f35b6102b2611695565b6102b2600480360360208110156108b657600080fd5b50356116b9565b61054b611710565b6108cd61171f565b604080519115158252519081900360200190f35b6108cd600480360360208110156108f757600080fd5b5035611730565b6102d16004803603602081101561091457600080fd5b5035611745565b6102b26004803603602081101561093157600080fd5b5035611757565b6108cd6004803603602081101561094e57600080fd5b5035600160a060020a03166117a7565b6104b96004803603602081101561097457600080fd5b50356117bc565b6102b26004803603604081101561099157600080fd5b5080359060200135611826565b6102b2600480360360208110156109b457600080fd5b5035600160a060020a0316611877565b6102b2600480360360208110156109da57600080fd5b50356118a9565b6102d1600480360360208110156109f757600080fd5b50356118ff565b6102b260048036036040811015610a1457600080fd5b5080359060200135611911565b6102b260048036036040811015610a3757600080fd5b81359190810190604081016020820135640100000000811115610a5957600080fd5b820183602082011115610a6b57600080fd5b80359060200191846001830284011164010000000083111715610a8d57600080fd5b509092509050611969565b6102b260048036036020811015610aae57600080fd5b810190602081018135640100000000811115610ac957600080fd5b820183602082011115610adb57600080fd5b80359060200191846020830284011164010000000083111715610afd57600080fd5b5090925090506119c7565b6102b260048036036020811015610b1e57600080fd5b5035600160a060020a0316611a9a565b6102b260048036036020811015610b4457600080fd5b5035600160a060020a0316611ab4565b6102b260048036036040811015610b6a57600080fd5b81359190810190604081016020820135640100000000811115610b8c57600080fd5b820183602082011115610b9e57600080fd5b80359060200191846001830284011164010000000083111715610bc057600080fd5b509092509050611ad1565b6102d160048036036020811015610be157600080fd5b50351515611bb3565b3360009081526002602052604090205460ff1680610c205750610c0b611710565b600160a060020a031633600160a060020a0316145b610c2957600080fd5b6000908152600460205260409020805460ff19169055565b6000818152600660205260409020545b919050565b3360009081526002602052604090205460ff1680610c8c5750610c77611710565b600160a060020a031633600160a060020a0316145b610c9557600080fd5b6000908152600360205260409020805473ffffffffffffffffffffffffffffffffffffffff19169055565b610cc861171f565b610cd157600080fd5b60005b81811015610d2757600060026000858585818110610cee57fe5b60209081029290920135600160a060020a0316835250810191909152604001600020805460ff1916911515919091179055600101610cd4565b505050565b3360009081526002602052604090205460ff1680610d625750610d4d611710565b600160a060020a031633600160a060020a0316145b610d6b57600080fd5b600091825260096020526040909120805460ff191660ff909216919091179055565b3360009081526002602052604090205460ff1680610dc35750610dae611710565b600160a060020a031633600160a060020a0316145b610dcc57600080fd5b6000818152600560205260408120610de391611d5e565b50565b3360009081526002602052604090205460ff1680610e1c5750610e07611710565b600160a060020a031633600160a060020a0316145b610e2557600080fd5b600090815260066020526040812055565b3360009081526002602052604090205460ff1680610e6c5750610e57611710565b600160a060020a031633600160a060020a0316145b610e7557600080fd5b60009182526006602052604090912055565b6000805b600154811015610ee2576002600060018381548110610ea657fe5b6000918252602080832090910154600160a060020a0316835282019290925260400190205460ff1615610eda576001909101905b600101610e8b565b5090565b6060610ef0610e87565b67ffffffffffffffff81118015610f0657600080fd5b50604051908082528060200260200182016040528015610f30578160200160208202803683370190505b50905060005b600154811015610ee2576002600060018381548110610f5157fe5b6000918252602080832090910154600160a060020a0316835282019290925260400190205460ff1615610fd65760018181548110610f8b57fe5b9060005260206000200160009054906101000a9004600160a060020a0316828281518110610fb557fe5b6020026020010190600160a060020a03169081600160a060020a0316815250505b600101610f36565b3360009081526002602052604090205460ff16806110145750610fff611710565b600160a060020a031633600160a060020a0316145b61101d57600080fd5b60009182526008602052604090912055565b61103761171f565b61104057600080fd5b600160a060020a03166000818152600260205260408120805460ff191660019081179091558054808201825591527fb10e2d527612073b26eecdfd717e6a320cf44b4afac2b0732d9fcbe2b7fa0cf601805473ffffffffffffffffffffffffffffffffffffffff19169091179055565b60008181526005602090815260409182902080548351601f60026000196101006001861615020190931692909204918201849004840281018401909452808452606093928301828280156111455780601f1061111a57610100808354040283529160200191611145565b820191906000526020600020905b81548152906001019060200180831161112857829003601f168201915b50505050509050919050565b600090815260036020526040902054600160a060020a031690565b60008160ff16600114156111925761118b61118684611730565b611bb3565b9050611204565b8160ff16600214156111b1576111a783611423565b60ff169050611204565b8160ff16600314156111c65761118b836118ff565b8160ff16600414156111eb576111db83611151565b600160a060020a03169050611204565b8160ff16600514156112005761118b83610c41565b5060005b92915050565b3360009081526002602052604090205460ff1680611240575061122b611710565b600160a060020a031633600160a060020a0316145b61124957600080fd5b600091825260046020526040909120805460ff1916911515919091179055565b3360009081526002602052604090205460ff168061129f575061128a611710565b600160a060020a031633600160a060020a0316145b6112a857600080fd5b600091825260036020526040909120805473ffffffffffffffffffffffffffffffffffffffff1916600160a060020a03909216919091179055565b3360009081526002602052604090205460ff16806113195750611304611710565b600160a060020a031633600160a060020a0316145b61132257600080fd5b60008281526008602052604090205461133b9082611bcb565b6000928352600860205260409092209190915550565b6000805b825181101561138b5782818151811061136a57fe5b602002602001015160ff16600714611383576001820191505b600101611355565b50919050565b61139961171f565b6113a257600080fd5b60008054604051600160a060020a03909116907f8be0079c531659141344cd1fd0a4f28419497f9722a3daafe3b4186f6b6457e0908390a36000805473ffffffffffffffffffffffffffffffffffffffff19169055565b6001818154811061140957600080fd5b600091825260209091200154600160a060020a0316905081565b60009081526009602052604090205460ff1690565b3360009081526002602052604090205460ff168061146e5750611459611710565b600160a060020a031633600160a060020a0316145b61147757600080fd5b600090815260076020526040812055565b60608060006114c985858080602002602001604051908101604052809392919081815260200183836020028082843760009201919091525061135192505050565b905060008487816114d657fe5b04905081810267ffffffffffffffff811180156114f257600080fd5b5060405190808252806020026020018201604052801561151c578160200160208202803683370190505b5093506000805b828110156116885760005b8781101561163357818802810189898381811061154757fe5b9050602002013560ff1660ff16600714156115db5761159161158261157d8e8e8581811061157157fe5b905060200201356117bc565b611be0565b61158b89611be0565b90611c05565b96506115d46115826040518060400160405280601181526020017f3636362d2d4554482d5655452d2d363636000000000000000000000000000000815250611be0565b965061162a565b61160c8c8c838181106115ea57fe5b905060200201358b8b858181106115fd57fe5b9050602002013560ff1661116c565b88858151811061161857fe5b60209081029190910101526001909301925b5060010161152e565b5061167e6116756040518060400160405280601681526020017f3636362d2d4554482d5655452d4c4953542d2d36363600000000000000000000815250611be0565b61158b87611be0565b9450600101611523565b5050505094509492505050565b61169d61171f565b6116a657600080fd5b6116ae611710565b600160a060020a0316ff5b3360009081526002602052604090205460ff16806116ef57506116da611710565b600160a060020a031633600160a060020a0316145b6116f857600080fd5b6000908152600960205260409020805460ff19169055565b600054600160a060020a031690565b600054600160a060020a0316331490565b60009081526004602052604090205460ff1690565b60009081526007602052604090205490565b3360009081526002602052604090205460ff168061178d5750611778611710565b600160a060020a031633600160a060020a0316145b61179657600080fd5b600090815260086020526040812055565b60026020526000908152604090205460ff1681565b6000818152600a602090815260409182902080548351601f60026000196101006001861615020190931692909204918201849004840281018401909452808452606093928301828280156111455780601f1061111a57610100808354040283529160200191611145565b3360009081526002602052604090205460ff168061185c5750611847611710565b600160a060020a031633600160a060020a0316145b61186557600080fd5b60009182526007602052604090912055565b61187f61171f565b61188857600080fd5b600160a060020a03166000908152600260205260409020805460ff19169055565b3360009081526002602052604090205460ff16806118df57506118ca611710565b600160a060020a031633600160a060020a0316145b6118e857600080fd5b6000818152600a60205260408120610de391611d5e565b60009081526008602052604090205490565b3360009081526002602052604090205460ff16806119475750611932611710565b600160a060020a031633600160a060020a0316145b61195057600080fd5b60008281526008602052604090205461133b9082611c8c565b3360009081526002602052604090205460ff168061199f575061198a611710565b600160a060020a031633600160a060020a0316145b6119a857600080fd5b60008381526005602052604090206119c1908383611da2565b50505050565b6119cf61171f565b6119d857600080fd5b60005b81811015610d27576001600260008585858181106119f557fe5b90506020020135600160a060020a0316600160a060020a0316600160a060020a0316815260200190815260200160002060006101000a81548160ff0219169083151502179055506001838383818110611a4a57fe5b8354600181810186556000958652602095869020909101805473ffffffffffffffffffffffffffffffffffffffff1916600160a060020a03969093029490940135949094161790915550016119db565b611aa261171f565b611aab57600080fd5b610de381611ca5565b611abc61171f565b611ac557600080fd5b80600160a060020a0316ff5b3360009081526002602052604090205460ff1680611b075750611af2611710565b600160a060020a031633600160a060020a0316145b611b1057600080fd5b611b90611b5283838080601f016020809104026020016040519081016040528093929190818152602001838380828437600092019190915250611be092505050565b61158b6040518060400160405280600181526020017f5e00000000000000000000000000000000000000000000000000000000000000815250611be0565b6000848152600a6020908152604090912082516119c19391929190910190611e2a565b60008115611bc357506001610c51565b506000610c51565b600082821115611bda57600080fd5b50900390565b611be8611ea6565b506040805180820190915281518152602082810190820152919050565b8051825160609182910167ffffffffffffffff81118015611c2557600080fd5b506040519080825280601f01601f191660200182016040528015611c50576020820181803683370190505b5090506000602082019050611c6e8186602001518760000151611d20565b845160208501518551611c849284019190611d20565b509392505050565b600082820183811015611c9e57600080fd5b9392505050565b600160a060020a038116611cb857600080fd5b60008054604051600160a060020a03808516939216917f8be0079c531659141344cd1fd0a4f28419497f9722a3daafe3b4186f6b6457e091a36000805473ffffffffffffffffffffffffffffffffffffffff1916600160a060020a0392909216919091179055565b5b60208110611d40578151835260209283019290910190601f1901611d21565b905182516020929092036101000a6000190180199091169116179052565b50805460018160011615610100020316600290046000825580601f10611d845750610de3565b601f016020900490600052602060002090810190610de39190611ec0565b828054600181600116156101000203166002900490600052602060002090601f016020900481019282611dd85760008555611e1e565b82601f10611df15782800160ff19823516178555611e1e565b82800160010185558215611e1e579182015b82811115611e1e578235825591602001919060010190611e03565b50610ee2929150611ec0565b828054600181600116156101000203166002900490600052602060002090601f016020900481019282611e605760008555611e1e565b82601f10611e7957805160ff1916838001178555611e1e565b82800160010185558215611e1e579182015b82811115611e1e578251825591602001919060010190611e8b565b604051806040016040528060008152602001600081525090565b5b80821115610ee25760008155600101611ec156fea26469706673582212202aca6b7e4e45f53355748e8594083911f3f1e746327cc672aa018713aaf9568164736f6c63430007040033",
  "immutableReferences": {},
  "source": "// SPDX-License-Identifier: GPL-3.0\r\npragma solidity >=0.7.0 <0.8.0;\r\n\r\nimport './zeppelin/lifecycle/Destructible.sol';\r\nimport \"./zeppelin/math/SafeMath.sol\";\r\nimport \"./lib/arachnid/solidity-stringutils/strings.sol\";\r\n\r\ncontract DB is Destructible {\r\n  using strings for *;\r\n\r\n  address[] public permittedContractsAddresses;\r\n  mapping(address => bool) public permissionStatusForContract;\r\n\r\n  // DB implemented as bytes32 mappings\r\n  mapping(bytes32 => address) AddressDataStore;\r\n  mapping(bytes32 => bool) BoolDataStore;\r\n  mapping(bytes32 => bytes) BytesDataStore;\r\n  mapping(bytes32 => bytes32) Bytes32DataStore;\r\n  mapping(bytes32 => int) IntDataStore;\r\n  mapping(bytes32 => uint) UIntDataStore;\r\n  mapping(bytes32 => uint8) UInt8DataStore;\r\n  mapping(bytes32 => string) StringDataStore;\r\n\r\n  modifier onlyPermittedContractOrOwner {\r\n    require(permissionStatusForContract[msg.sender] || msg.sender == owner());\r\n    _;\r\n  }\r\n\r\n  constructor () { }\r\n\r\n  // AddressDataStore\r\n  function getAddressValue (bytes32 recordFieldName) public view returns (address) {\r\n    return AddressDataStore[recordFieldName];\r\n  }\r\n\r\n  function setAddressValue (bytes32 recordFieldName, address value) external\r\n    onlyPermittedContractOrOwner\r\n  {\r\n    AddressDataStore[recordFieldName] = value;\r\n  }\r\n\r\n  function deleteAddressValue (bytes32 recordFieldName) external\r\n    onlyPermittedContractOrOwner\r\n  {\r\n    delete AddressDataStore[recordFieldName];\r\n  }\r\n\r\n  // BoolDataStore\r\n  function getBoolValue (bytes32 recordFieldName) public view returns (bool) {\r\n    return BoolDataStore[recordFieldName];\r\n  }\r\n\r\n  function setBoolValue (bytes32 recordFieldName, bool value) external\r\n    onlyPermittedContractOrOwner\r\n  {\r\n    BoolDataStore[recordFieldName] = value;\r\n  }\r\n\r\n  function deleteBoolValue (bytes32 recordFieldName) external\r\n    onlyPermittedContractOrOwner\r\n  {\r\n    delete BoolDataStore[recordFieldName];\r\n  }\r\n\r\n  // BytesDataStore\r\n  function getBytesValue (bytes32 recordFieldName) public view returns (bytes memory) {\r\n    return BytesDataStore[recordFieldName];\r\n  }\r\n\r\n  function setBytesValue (bytes32 recordFieldName, bytes calldata value) external\r\n    onlyPermittedContractOrOwner\r\n  {\r\n    BytesDataStore[recordFieldName] = value;\r\n  }\r\n\r\n  function deleteBytesValue (bytes32 recordFieldName) external\r\n    onlyPermittedContractOrOwner\r\n  {\r\n    delete BytesDataStore[recordFieldName];\r\n  }\r\n\r\n  // Bytes32DataStore\r\n  function getBytes32Value (bytes32 recordFieldName) public view returns (bytes32) {\r\n    return Bytes32DataStore[recordFieldName];\r\n  }\r\n\r\n  function setBytes32Value (bytes32 recordFieldName, bytes32 value) external\r\n    onlyPermittedContractOrOwner\r\n  {\r\n    Bytes32DataStore[recordFieldName] = value;\r\n  }\r\n\r\n  function deleteBytes32Value (bytes32 recordFieldName) external\r\n    onlyPermittedContractOrOwner\r\n  {\r\n    delete Bytes32DataStore[recordFieldName];\r\n  }\r\n\r\n  // IntDataStore\r\n  function getIntValue (bytes32 recordFieldName) public view returns (int) {\r\n    return IntDataStore[recordFieldName];\r\n  }\r\n\r\n  function setIntValue (bytes32 recordFieldName, int value) external\r\n    onlyPermittedContractOrOwner\r\n  {\r\n    IntDataStore[recordFieldName] = value;\r\n  }\r\n\r\n  function deleteIntValue (bytes32 recordFieldName) external\r\n    onlyPermittedContractOrOwner\r\n  {\r\n    delete IntDataStore[recordFieldName];\r\n  }\r\n\r\n  // UIntDataStore\r\n  function getUIntValue (bytes32 recordFieldName) public view returns (uint) {\r\n    return UIntDataStore[recordFieldName];\r\n  }\r\n\r\n  function setUIntValue (bytes32 recordFieldName, uint value) public\r\n    onlyPermittedContractOrOwner\r\n  {\r\n    UIntDataStore[recordFieldName] = value;\r\n  }\r\n\r\n  function addUIntValue (bytes32 recordFieldName, uint value) external\r\n    onlyPermittedContractOrOwner\r\n  {\r\n    UIntDataStore[recordFieldName] = SafeMath.add(UIntDataStore[recordFieldName], value);\r\n  }\r\n\r\n  function subUIntValue (bytes32 recordFieldName, uint value) external\r\n    onlyPermittedContractOrOwner\r\n  {\r\n    UIntDataStore[recordFieldName] = SafeMath.sub(UIntDataStore[recordFieldName], value);\r\n  }\r\n\r\n  function deleteUIntValue (bytes32 recordFieldName) external\r\n    onlyPermittedContractOrOwner\r\n  {\r\n    delete UIntDataStore[recordFieldName];\r\n  }\r\n\r\n  // UInt8DataStore\r\n  function getUInt8Value (bytes32 recordFieldName) public view returns (uint8){\r\n    return UInt8DataStore[recordFieldName];\r\n  }\r\n\r\n  function setUInt8Value (bytes32 recordFieldName, uint8 value) public\r\n    onlyPermittedContractOrOwner\r\n  {\r\n    UInt8DataStore[recordFieldName] = value;\r\n  }\r\n\r\n  function deleteUInt8Value (bytes32 recordFieldName) external\r\n    onlyPermittedContractOrOwner\r\n  {\r\n    delete UInt8DataStore[recordFieldName];\r\n  }\r\n\r\n  // StringDataStore\r\n  function getStringValue (bytes32 recordFieldName) public view returns (string memory) {\r\n    return StringDataStore[recordFieldName];\r\n  }\r\n\r\n  function setStringValue (bytes32 recordFieldName, string calldata value) external\r\n    onlyPermittedContractOrOwner\r\n  {\r\n    StringDataStore[recordFieldName] = \"^\".toSlice().concat(value.toSlice());\r\n  }\r\n\r\n  function deleteStringValue (bytes32 recordFieldName) external\r\n    onlyPermittedContractOrOwner\r\n  {\r\n    delete StringDataStore[recordFieldName];\r\n  }\r\n\r\n  // DB Utilities\r\n\r\n  function addPermittedContract (address contractAddress) external\r\n  onlyOwner {\r\n    permissionStatusForContract[contractAddress] = true;\r\n    permittedContractsAddresses.push(contractAddress);\r\n  }\r\n\r\n  function addPermittedContracts (address[] calldata addresses) external\r\n  onlyOwner {\r\n    for (uint i = 0; i < addresses.length; i++) {\r\n      permissionStatusForContract[addresses[i]] = true;\r\n      permittedContractsAddresses.push(addresses[i]);\r\n    }\r\n  }\r\n\r\n  function removePermittedContract (address addresses) external\r\n  onlyOwner {\r\n    permissionStatusForContract[addresses] = false;\r\n  }\r\n\r\n  function removePermittedContracts (address[] calldata addresses) external\r\n  onlyOwner {\r\n    for (uint i = 0; i < addresses.length; i++) {\r\n      permissionStatusForContract[addresses[i]] = false;\r\n    }\r\n  }\r\n\r\n  function permittedContractsCount () public view returns (uint count) {\r\n    for (uint i = 0; i < permittedContractsAddresses.length; i++) {\r\n      if (permissionStatusForContract[permittedContractsAddresses[i]]) {\r\n        count++;\r\n      }\r\n    }\r\n\r\n    return count;\r\n  }\r\n\r\n  function getPermittedContracts () external view returns (address[] memory addresses) {\r\n    addresses = new address[](permittedContractsCount());\r\n    for (uint i = 0; i < permittedContractsAddresses.length; i++) {\r\n      if (permissionStatusForContract[permittedContractsAddresses[i]]) {\r\n        addresses[i] = permittedContractsAddresses[i];\r\n      }\r\n    }\r\n\r\n    return addresses;\r\n  }\r\n\r\n  // Fetch Data\r\n  function getObjectData (bytes32[] calldata recordFieldNames, uint8[] calldata recordFieldTypes)\r\n    external view returns\r\n  (\r\n    uint[] memory items,\r\n    string memory stringItem\r\n  )\r\n  {\r\n    uint countOfIntegerTypes = getCountOfIntegerTypes(recordFieldTypes);\r\n    /*\r\n      objectsCount gives the number of entities we're basing the search on. Search may be needed for several entities for which recordFieldTypes[] is the same for all of them. E.g. get the name, email, gender, and state of 5 people:\r\n      recordFieldNames: [\r\n        keccak256(\"user/name\", \"0x9838cdba...\"), keccak256(\"user/email\", \"0x9838cdba...\"), keccak256(\"user/gender\", \"0x9838cdba...\"), keccak256(\"user/state\", \"0x9838cdba...\"),\r\n\r\n        keccak256(\"user/name\", \"0xabc63533...\"), keccak256(\"user/email\", \"0xabc63533...\"), keccak256(\"user/gender\", \"0xabc63533...\"), keccak256(\"user/state\", \"0xabc63533...\"),\r\n\r\n        keccak256(\"user/name\", \"0x08253befd...\"), keccak256(\"user/email\", \"0x08253befd...\"), keccak256(\"user/gender\", \"0x08253befd...\"), keccak256(\"user/state\", \"0x08253befd...\"),\r\n\r\n        keccak256(\"user/name\", \"0x0b6354a...\"), keccak256(\"user/email\", \"0x0b6354a...\"), keccak256(\"user/gender\", \"0x0b6354a...\"), keccak256(\"user/state\", \"0x0b6354a...\"),\r\n\r\n        keccak256(\"user/name\", \"0x07352bac36...\"), keccak256(\"user/email\", \"0x07352bac36...\"), keccak256(\"user/gender\", \"0x07352bac36...\"), keccak256(\"user/state\", \"0x07352bac36...\")\r\n\r\n      ],\r\n      recordFieldTypes: [7, 7, 5, 3]\r\n      In this case, recordFieldNames.length = 20, recordFieldTypes.length = 4 => objectsCount = 5 [the search is being done for 5 entities]\r\n    */\r\n    uint objectsCount = recordFieldNames.length / recordFieldTypes.length;\r\n    items = new uint[](objectsCount * countOfIntegerTypes);\r\n    uint k;\r\n    for (uint i = 0; i < objectsCount; i++) {\r\n      for (uint j = 0; j < recordFieldTypes.length; j++) {\r\n        uint r_i = (i * recordFieldTypes.length) + j;\r\n        if (recordFieldTypes[j] == 7) {\r\n          stringItem = stringItem.toSlice().concat(getStringValue(recordFieldNames[r_i]).toSlice());\r\n          stringItem = stringItem.toSlice().concat(\"666--ETH-VUE--666\".toSlice());\r\n        } else {\r\n          items[k] = getCorrespondingIntegerValue(recordFieldNames[r_i], recordFieldTypes[j]);\r\n          k++;\r\n        }\r\n      }\r\n      stringItem = stringItem.toSlice().concat(\"666--ETH-VUE-LIST--666\".toSlice());\r\n    }\r\n\r\n    return (items, stringItem);\r\n  }\r\n\r\n  function getCountOfIntegerTypes (uint8[] memory recordFieldTypes) public pure returns (uint count) {\r\n    count = 0;\r\n    for (uint i = 0; i < recordFieldTypes.length ; i++) {\r\n      if (recordFieldTypes[i] != 7) { // recordFieldType 7 is for strings\r\n        count += 1;\r\n      }\r\n    }\r\n\r\n    return count;\r\n  }\r\n\r\n  function getCorrespondingIntegerValue (bytes32 recordFieldName, uint8 uintType) public view returns (uint) {\r\n    // recordFieldTypes: 1 => bool, 2 => uint8, 3 => uint, 4 => address, 5 => bytes32, 7 => string\r\n    if (uintType == 1) {\r\n      return boolToUInt(getBoolValue(recordFieldName));\r\n    } else if (uintType == 2) {\r\n      return uint(getUInt8Value(recordFieldName));\r\n    } else if (uintType == 3) {\r\n      return getUIntValue(recordFieldName);\r\n    } else if (uintType == 4) {\r\n      return uint(getAddressValue(recordFieldName));\r\n    } else if (uintType == 5) {\r\n      return uint(getBytes32Value(recordFieldName));\r\n    } else {\r\n      return 0;\r\n    }\r\n  }\r\n\r\n  function boolToUInt (bool logicEntry) public pure returns (uint) {\r\n    if (logicEntry) {\r\n      return 1;\r\n    } else {\r\n      return 0;\r\n    }\r\n  }\r\n}\r\n",
  "sourcePath": "C:\\Users\\mcgee\\Local Sites\\gardenuniversity\\app\\public\\wp-content\\plugins\\threed-garden\\eth-vue\\contracts\\DB.sol",
  "compiler": {
    "name": "solc",
    "version": "0.7.4+commit.3f05b770.Emscripten.clang"
  },
  "schemaVersion": "3.4.4",
  "updatedAt": "2022-02-09T06:14:52.375Z",
  "devdoc": {
    "kind": "dev",
    "methods": {
      "destroy()": {
        "details": "Transfers the current balance to the owner and terminates the contract."
      },
      "isOwner()": {
        "returns": {
          "_0": "true if `msg.sender` is the owner of the contract."
        }
      },
      "owner()": {
        "returns": {
          "_0": "the address of the owner."
        }
      },
      "renounceOwnership()": {
        "details": "Allows the current owner to relinquish control of the contract."
      },
      "transferOwnership(address)": {
        "details": "Allows the current owner to transfer control of the contract to a newOwner.",
        "params": {
          "newOwner": "The address to transfer ownership to."
        }
      }
    },
    "version": 1
  },
  "userdoc": {
    "kind": "user",
    "methods": {
      "renounceOwnership()": {
        "notice": "Renouncing to ownership will leave the contract without an owner. It will not be possible to call the functions with the `onlyOwner` modifier anymore."
      }
    },
    "version": 1
  }
}