{
  "contractName": "Destructible",
  "abi": [
    {
      "anonymous": false,
      "inputs": [
        {
          "indexed": true,
          "internalType": "address",
          "name": "previousOwner",
          "type": "address"
        },
        {
          "indexed": true,
          "internalType": "address",
          "name": "newOwner",
          "type": "address"
        }
      ],
      "name": "OwnershipTransferred",
      "type": "event"
    },
    {
      "inputs": [],
      "name": "isOwner",
      "outputs": [
        {
          "internalType": "bool",
          "name": "",
          "type": "bool"
        }
      ],
      "stateMutability": "view",
      "type": "function"
    },
    {
      "inputs": [],
      "name": "owner",
      "outputs": [
        {
          "internalType": "address payable",
          "name": "",
          "type": "address"
        }
      ],
      "stateMutability": "view",
      "type": "function"
    },
    {
      "inputs": [],
      "name": "renounceOwnership",
      "outputs": [],
      "stateMutability": "nonpayable",
      "type": "function"
    },
    {
      "inputs": [
        {
          "internalType": "address payable",
          "name": "newOwner",
          "type": "address"
        }
      ],
      "name": "transferOwnership",
      "outputs": [],
      "stateMutability": "nonpayable",
      "type": "function"
    },
    {
      "inputs": [],
      "name": "destroy",
      "outputs": [],
      "stateMutability": "nonpayable",
      "type": "function"
    },
    {
      "inputs": [
        {
          "internalType": "address payable",
          "name": "_recipient",
          "type": "address"
        }
      ],
      "name": "destroyAndSend",
      "outputs": [],
      "stateMutability": "nonpayable",
      "type": "function"
    }
  ],
  "bytecode": "0x608060405234801561001057600080fd5b5060008054600160a060020a0319163317808255604051600160a060020a039190911691907f8be0079c531659141344cd1fd0a4f28419497f9722a3daafe3b4186f6b6457e0908290a36102b8806100696000396000f3fe608060405234801561001057600080fd5b506004361061007e577c01000000000000000000000000000000000000000000000000000000006000350463715018a6811461008357806383197ef01461008d5780638da5cb5b146100955780638f32d59b146100b9578063f2fde38b146100d5578063f5074f41146100fb575b600080fd5b61008b610121565b005b61008b610189565b61009d6101ad565b60408051600160a060020a039092168252519081900360200190f35b6100c16101bc565b604080519115158252519081900360200190f35b61008b600480360360208110156100eb57600080fd5b5035600160a060020a03166101cd565b61008b6004803603602081101561011157600080fd5b5035600160a060020a03166101ea565b6101296101bc565b61013257600080fd5b60008054604051600160a060020a03909116907f8be0079c531659141344cd1fd0a4f28419497f9722a3daafe3b4186f6b6457e0908390a36000805473ffffffffffffffffffffffffffffffffffffffff19169055565b6101916101bc565b61019a57600080fd5b6101a26101ad565b600160a060020a0316ff5b600054600160a060020a031690565b600054600160a060020a0316331490565b6101d56101bc565b6101de57600080fd5b6101e781610207565b50565b6101f26101bc565b6101fb57600080fd5b80600160a060020a0316ff5b600160a060020a03811661021a57600080fd5b60008054604051600160a060020a03808516939216917f8be0079c531659141344cd1fd0a4f28419497f9722a3daafe3b4186f6b6457e091a36000805473ffffffffffffffffffffffffffffffffffffffff1916600160a060020a039290921691909117905556fea2646970667358221220b15e67fe6d46c441c02d1efcecd0fd1fa240e8a7a71d5ab079d290fa478046e964736f6c63430007040033",
  "immutableReferences": {},
  "source": "// SPDX-License-Identifier: GPL-3.0\r\npragma solidity >=0.7.0 <0.8.0;\r\n\r\nimport \"../ownership/Ownable.sol\";\r\n\r\n/**\r\n * @title Destructible\r\n * @dev Base contract that can be destroyed by owner. All funds in contract will be sent to the owner.\r\n */\r\ncontract Destructible is Ownable {\r\n  /**\r\n   * @dev Transfers the current balance to the owner and terminates the contract.\r\n   */\r\n  function destroy () public onlyOwner {\r\n    selfdestruct(owner());\r\n  }\r\n\r\n  function destroyAndSend (address payable _recipient) public onlyOwner {\r\n    selfdestruct(_recipient);\r\n  }\r\n}\r\n",
  "sourcePath": "C:\\Users\\mcgee\\Local Sites\\gardenuniversity\\app\\public\\wp-content\\plugins\\threed-garden\\eth-vue\\contracts\\zeppelin\\lifecycle\\Destructible.sol",
  "compiler": {
    "name": "solc",
    "version": "0.7.4+commit.3f05b770.Emscripten.clang"
  },
  "schemaVersion": "3.4.4",
  "updatedAt": "2022-02-09T06:14:52.439Z",
  "devdoc": {
    "details": "Base contract that can be destroyed by owner. All funds in contract will be sent to the owner.",
    "kind": "dev",
    "methods": {
      "destroy()": {
        "details": "Transfers the current balance to the owner and terminates the contract."
      },
      "isOwner()": {
        "returns": {
          "_0": "true if `msg.sender` is the owner of the contract."
        }
      },
      "owner()": {
        "returns": {
          "_0": "the address of the owner."
        }
      },
      "renounceOwnership()": {
        "details": "Allows the current owner to relinquish control of the contract."
      },
      "transferOwnership(address)": {
        "details": "Allows the current owner to transfer control of the contract to a newOwner.",
        "params": {
          "newOwner": "The address to transfer ownership to."
        }
      }
    },
    "title": "Destructible",
    "version": 1
  },
  "userdoc": {
    "kind": "user",
    "methods": {
      "renounceOwnership()": {
        "notice": "Renouncing to ownership will leave the contract without an owner. It will not be possible to call the functions with the `onlyOwner` modifier anymore."
      }
    },
    "version": 1
  }
}